{
  "contractName": "TimeClock",
  "abi": [
    {
      "constant": true,
      "inputs": [
        {
          "name": "_index",
          "type": "uint256"
        }
      ],
      "name": "get_employee",
      "outputs": [
        {
          "name": "",
          "type": "bytes32"
        }
      ],
      "payable": false,
      "stateMutability": "view",
      "type": "function"
    },
    {
      "constant": true,
      "inputs": [
        {
          "name": "_name",
          "type": "bytes32"
        }
      ],
      "name": "employee_exists",
      "outputs": [
        {
          "name": "",
          "type": "bool"
        }
      ],
      "payable": false,
      "stateMutability": "view",
      "type": "function"
    },
    {
      "constant": false,
      "inputs": [
        {
          "name": "_name",
          "type": "bytes32"
        }
      ],
      "name": "clock_in",
      "outputs": [
        {
          "name": "",
          "type": "uint256"
        }
      ],
      "payable": false,
      "stateMutability": "nonpayable",
      "type": "function"
    },
    {
      "constant": false,
      "inputs": [
        {
          "name": "_name",
          "type": "bytes32"
        }
      ],
      "name": "add_employee",
      "outputs": [
        {
          "name": "",
          "type": "bytes32[]"
        },
        {
          "name": "",
          "type": "uint256"
        }
      ],
      "payable": false,
      "stateMutability": "nonpayable",
      "type": "function"
    },
    {
      "constant": true,
      "inputs": [],
      "name": "list_all_employees",
      "outputs": [
        {
          "name": "",
          "type": "bytes32[]"
        },
        {
          "name": "",
          "type": "uint256"
        }
      ],
      "payable": false,
      "stateMutability": "view",
      "type": "function"
    },
    {
      "constant": false,
      "inputs": [
        {
          "name": "_name",
          "type": "bytes32"
        }
      ],
      "name": "clock_out",
      "outputs": [
        {
          "name": "",
          "type": "uint256"
        }
      ],
      "payable": false,
      "stateMutability": "nonpayable",
      "type": "function"
    },
    {
      "constant": true,
      "inputs": [
        {
          "name": "_name",
          "type": "bytes32"
        }
      ],
      "name": "get_time_stamps_for_name",
      "outputs": [
        {
          "name": "",
          "type": "uint256[]"
        }
      ],
      "payable": false,
      "stateMutability": "view",
      "type": "function"
    },
    {
      "constant": false,
      "inputs": [
        {
          "name": "_string",
          "type": "string"
        }
      ],
      "name": "echo",
      "outputs": [
        {
          "name": "",
          "type": "string"
        }
      ],
      "payable": false,
      "stateMutability": "nonpayable",
      "type": "function"
    },
    {
      "anonymous": false,
      "inputs": [
        {
          "indexed": false,
          "name": "_from",
          "type": "address"
        },
        {
          "indexed": false,
          "name": "_name",
          "type": "bytes32"
        },
        {
          "indexed": false,
          "name": "_time",
          "type": "uint256"
        }
      ],
      "name": "clock_in_event",
      "type": "event"
    },
    {
      "anonymous": false,
      "inputs": [
        {
          "indexed": false,
          "name": "_from",
          "type": "address"
        },
        {
          "indexed": false,
          "name": "_name",
          "type": "bytes32"
        },
        {
          "indexed": false,
          "name": "_time",
          "type": "uint256"
        }
      ],
      "name": "clock_out_event",
      "type": "event"
    },
    {
      "anonymous": false,
      "inputs": [
        {
          "indexed": false,
          "name": "_from",
          "type": "address"
        },
        {
          "indexed": false,
          "name": "_name",
          "type": "bytes32"
        },
        {
          "indexed": false,
          "name": "_time",
          "type": "uint256"
        }
      ],
      "name": "employee_added_event",
      "type": "event"
    }
  ],
  "bytecode": "0x6060604052341561000f57600080fd5b610cee8061001e6000396000f30060606040526004361061008e576000357c0100000000000000000000000000000000000000000000000000000000900463ffffffff1680630207e2c61461009357806333d968bb146100d25780633a065a6b146101115780638f8851f51461014c578063a81e2254146101cf578063c7f24b4a14610240578063c7f72de11461027b578063f15da729146102f7575b600080fd5b341561009e57600080fd5b6100b460048080359060200190919050506103cd565b60405180826000191660001916815260200191505060405180910390f35b34156100dd57600080fd5b6100f76004808035600019169060200190919050506103f6565b604051808215151515815260200191505060405180910390f35b341561011c57600080fd5b61013660048080356000191690602001909190505061055c565b6040518082815260200191505060405180910390f35b341561015757600080fd5b610171600480803560001916906020019091905050610753565b6040518080602001838152602001828103825284818151815260200191508051906020019060200280838360005b838110156101ba57808201518184015260208101905061019f565b50505050905001935050505060405180910390f35b34156101da57600080fd5b6101e26108f5565b6040518080602001838152602001828103825284818151815260200191508051906020019060200280838360005b8381101561022b578082015181840152602081019050610210565b50505050905001935050505060405180910390f35b341561024b57600080fd5b610265600480803560001916906020019091905050610964565b6040518082815260200191505060405180910390f35b341561028657600080fd5b6102a0600480803560001916906020019091905050610b5b565b6040518080602001828103825283818151815260200191508051906020019060200280838360005b838110156102e35780820151818401526020810190506102c8565b505050509050019250505060405180910390f35b341561030257600080fd5b610352600480803590602001908201803590602001908080601f01602080910402602001604051908101604052809392919081815260200183838082843782019150505050505091905050610bd4565b6040518080602001828103825283818151815260200191508051906020019080838360005b83811015610392578082015181840152602081019050610377565b50505050905090810190601f1680156103bf5780820380516001836020036101000a031916815260200191505b509250505060405180910390f35b6000806002838154811015156103df57fe5b906000526020600020900154905080915050919050565b60007f66616c73650000000000000000000000000000000000000000000000000000007affffffffffffffffffffffffffffffffffffffffffffffffffffff1916600080846000191660001916815260200190815260200160002060009054906101000a90047b01000000000000000000000000000000000000000000000000000000027affffffffffffffffffffffffffffffffffffffffffffffffffffff19161415801561054457507f74727565000000000000000000000000000000000000000000000000000000007affffffffffffffffffffffffffffffffffffffffffffffffffffff1916600080846000191660001916815260200190815260200160002060009054906101000a90047b01000000000000000000000000000000000000000000000000000000027affffffffffffffffffffffffffffffffffffffffffffffffffffff191614155b156105525760009050610557565b600190505b919050565b6000610567826103f6565b801561061057507f66616c73650000000000000000000000000000000000000000000000000000007affffffffffffffffffffffffffffffffffffffffffffffffffffff1916600080846000191660001916815260200190815260200160002060009054906101000a90047b01000000000000000000000000000000000000000000000000000000027affffffffffffffffffffffffffffffffffffffffffffffffffffff1916145b151561061b57600080fd5b7f7472756500000000000000000000000000000000000000000000000000000000600080846000191660001916815260200190815260200160002060006101000a81548164ffffffffff02191690837b010000000000000000000000000000000000000000000000000000009004021790555060016000836000191660001916815260200190815260200160002080548060010182816106bb9190610be4565b9160005260206000209001600042909190915055507f2c31ec36ee25f16f59c8b7a9eabfb624e3124aa87b362d5c04126c4b64578b21338342604051808473ffffffffffffffffffffffffffffffffffffffff1673ffffffffffffffffffffffffffffffffffffffff1681526020018360001916600019168152602001828152602001935050505060405180910390a1429050919050565b61075b610c10565b6000610766836103f6565b15151561077257600080fd5b600280548060010182816107869190610c24565b9160005260206000209001600085909190915090600019169055507f66616c7365000000000000000000000000000000000000000000000000000000600080856000191660001916815260200190815260200160002060006101000a81548164ffffffffff02191690837b01000000000000000000000000000000000000000000000000000000900402179055507fdf289bfd735dd7de302174e5531462c8f81b64e212447b83b52c404b56add9f8338442604051808473ffffffffffffffffffffffffffffffffffffffff1673ffffffffffffffffffffffffffffffffffffffff1681526020018360001916600019168152602001828152602001935050505060405180910390a160028080549050818054806020026020016040519081016040528092919081815260200182805480156108e557602002820191906000526020600020905b815460001916815260200190600101908083116108cd575b5050505050915091509150915091565b6108fd610c10565b6000600280805490508180548060200260200160405190810160405280929190818152602001828054801561095557602002820191906000526020600020905b8154600019168152602001906001019080831161093d575b50505050509150915091509091565b600061096f826103f6565b8015610a1857507f74727565000000000000000000000000000000000000000000000000000000007affffffffffffffffffffffffffffffffffffffffffffffffffffff1916600080846000191660001916815260200190815260200160002060009054906101000a90047b01000000000000000000000000000000000000000000000000000000027affffffffffffffffffffffffffffffffffffffffffffffffffffff1916145b1515610a2357600080fd5b7f66616c7365000000000000000000000000000000000000000000000000000000600080846000191660001916815260200190815260200160002060006101000a81548164ffffffffff02191690837b01000000000000000000000000000000000000000000000000000000900402179055506001600083600019166000191681526020019081526020016000208054806001018281610ac39190610be4565b9160005260206000209001600042909190915055507ff730b471700718e68cebd8f8820a4a20dcbb9db26f18737ca593f2c22e97f495338342604051808473ffffffffffffffffffffffffffffffffffffffff1673ffffffffffffffffffffffffffffffffffffffff1681526020018360001916600019168152602001828152602001935050505060405180910390a1429050919050565b610b63610c50565b600160008360001916600019168152602001908152602001600020805480602002602001604051908101604052809291908181526020018280548015610bc857602002820191906000526020600020905b815481526020019060010190808311610bb4575b50505050509050919050565b610bdc610c64565b819050919050565b815481835581811511610c0b57818360005260206000209182019101610c0a9190610c78565b5b505050565b602060405190810160405280600081525090565b815481835581811511610c4b57818360005260206000209182019101610c4a9190610c9d565b5b505050565b602060405190810160405280600081525090565b602060405190810160405280600081525090565b610c9a91905b80821115610c96576000816000905550600101610c7e565b5090565b90565b610cbf91905b80821115610cbb576000816000905550600101610ca3565b5090565b905600a165627a7a723058200d1422dec4743582224fd2f8ad2ce2644c30c775e9736b17fd96127845d6a56b0029",
  "source": "pragma solidity ^0.4.0;\n\n\ncontract TimeClock{\n    \n    mapping(bytes32=>bytes5) private is_clocked_in;\n    mapping(bytes32=>uint[]) private time_stamps;\n    bytes32[] employees;\n\n    event clock_in_event( \n        address _from,\n        bytes32 _name,\n        uint _time\n        );\n    event clock_out_event( \n        address _from,\n        bytes32 _name,\n        uint _time\n        );\n    event employee_added_event( \n        address _from,\n        bytes32 _name,\n        uint _time\n        );\n\n    function echo(string _string) public returns(string){\n      return _string;\n    }\n        \n    function list_all_employees() public view returns (bytes32[], uint){\n        return (employees, employees.length);\n    }\n    \n    function clock_in(bytes32 _name) public returns(uint){\n        require( employee_exists(_name) && (is_clocked_in[_name] == bytes5(\"false\"))) ;\n        is_clocked_in[_name] = \"true\";\n        time_stamps[_name].push(now);\n        clock_in_event( msg.sender, _name, now);\n        return now;\n        \n    }\n    function clock_out(bytes32 _name) public returns(uint){\n        require( employee_exists(_name) && (is_clocked_in[_name] == bytes5(\"true\"))) ;\n        is_clocked_in[_name] = \"false\";\n        time_stamps[_name].push(now);\n        clock_out_event( msg.sender, _name, now);\n        return now;\n        \n    }\n    function get_time_stamps_for_name(bytes32 _name) public view returns (uint[]){\n        return time_stamps[_name];\n    }\n    \n    function add_employee(bytes32 _name) public returns(bytes32[], uint){\n        require( !employee_exists(_name) );\n    \n        employees.push(_name);\n        is_clocked_in[_name]=\"false\";\n        employee_added_event( msg.sender, _name, now);\n        return (employees, employees.length);\n\n    }\n    \n    function employee_exists(bytes32 _name) public view returns (bool){\n        if(((is_clocked_in[_name] != bytes5(\"false\"))) && ((is_clocked_in[_name] != bytes5(\"true\"))) ){\n            return false;\n        }\n        else{\n            return true;\n        }\n    }\n    \n    function get_employee(uint _index) public view returns(bytes32){\n        bytes32 _emp = employees[_index];\n        return(_emp);\n    }\n    \n}\n",
  "sourcePath": "/home/sailor/etherium/Honolulu_job/time_block_1.0/contracts/TimeClock.sol",
  "compiler": {
    "name": "solc",
    "version": "0.4.18+commit.9cf6e910.Emscripten.clang"
  },
  "schemaVersion": "1.0.1",
  "updatedAt": "2018-02-01T10:47:21.670Z"
}