{
  "contractName": "TimeClock1",
  "abi": [
    {
      "anonymous": false,
      "inputs": [
        {
          "indexed": false,
          "name": "_from",
          "type": "address"
        },
        {
          "indexed": false,
          "name": "_name",
          "type": "bytes32"
        },
        {
          "indexed": false,
          "name": "_time",
          "type": "uint256"
        }
      ],
      "name": "clock_in_event",
      "type": "event"
    },
    {
      "anonymous": false,
      "inputs": [
        {
          "indexed": false,
          "name": "_from",
          "type": "address"
        },
        {
          "indexed": false,
          "name": "_name",
          "type": "bytes32"
        },
        {
          "indexed": false,
          "name": "_time",
          "type": "uint256"
        }
      ],
      "name": "clock_out_event",
      "type": "event"
    },
    {
      "anonymous": false,
      "inputs": [
        {
          "indexed": false,
          "name": "_from",
          "type": "address"
        },
        {
          "indexed": false,
          "name": "_name",
          "type": "bytes32"
        },
        {
          "indexed": false,
          "name": "_time",
          "type": "uint256"
        }
      ],
      "name": "employee_added_event",
      "type": "event"
    },
    {
      "constant": true,
      "inputs": [],
      "name": "list_all_employees",
      "outputs": [
        {
          "name": "",
          "type": "bytes32[]"
        },
        {
          "name": "",
          "type": "uint256"
        }
      ],
      "payable": false,
      "stateMutability": "view",
      "type": "function"
    },
    {
      "constant": false,
      "inputs": [
        {
          "name": "_name",
          "type": "bytes32"
        }
      ],
      "name": "clock_in",
      "outputs": [
        {
          "name": "",
          "type": "uint256"
        }
      ],
      "payable": false,
      "stateMutability": "nonpayable",
      "type": "function"
    },
    {
      "constant": false,
      "inputs": [
        {
          "name": "_name",
          "type": "bytes32"
        }
      ],
      "name": "clock_out",
      "outputs": [
        {
          "name": "",
          "type": "uint256"
        }
      ],
      "payable": false,
      "stateMutability": "nonpayable",
      "type": "function"
    },
    {
      "constant": true,
      "inputs": [
        {
          "name": "_name",
          "type": "bytes32"
        }
      ],
      "name": "get_time_stamps_for_name",
      "outputs": [
        {
          "name": "",
          "type": "uint256[]"
        }
      ],
      "payable": false,
      "stateMutability": "view",
      "type": "function"
    },
    {
      "constant": false,
      "inputs": [
        {
          "name": "_name",
          "type": "bytes32"
        }
      ],
      "name": "add_employee",
      "outputs": [
        {
          "name": "",
          "type": "bytes32[]"
        },
        {
          "name": "",
          "type": "uint256"
        }
      ],
      "payable": false,
      "stateMutability": "nonpayable",
      "type": "function"
    },
    {
      "constant": true,
      "inputs": [
        {
          "name": "_name",
          "type": "bytes32"
        }
      ],
      "name": "employee_exists",
      "outputs": [
        {
          "name": "",
          "type": "bool"
        }
      ],
      "payable": false,
      "stateMutability": "view",
      "type": "function"
    },
    {
      "constant": true,
      "inputs": [
        {
          "name": "_index",
          "type": "uint256"
        }
      ],
      "name": "get_employee",
      "outputs": [
        {
          "name": "",
          "type": "bytes32"
        }
      ],
      "payable": false,
      "stateMutability": "view",
      "type": "function"
    }
  ],
  "bytecode": "0x6060604052341561000f57600080fd5b610be98061001e6000396000f300606060405260043610610083576000357c0100000000000000000000000000000000000000000000000000000000900463ffffffff1680630207e2c61461008857806333d968bb146100c75780633a065a6b146101065780638f8851f514610141578063a81e2254146101c4578063c7f24b4a14610235578063c7f72de114610270575b600080fd5b341561009357600080fd5b6100a960048080359060200190919050506102ec565b60405180826000191660001916815260200191505060405180910390f35b34156100d257600080fd5b6100ec600480803560001916906020019091905050610315565b604051808215151515815260200191505060405180910390f35b341561011157600080fd5b61012b60048080356000191690602001909190505061047b565b6040518082815260200191505060405180910390f35b341561014c57600080fd5b610166600480803560001916906020019091905050610672565b6040518080602001838152602001828103825284818151815260200191508051906020019060200280838360005b838110156101af578082015181840152602081019050610194565b50505050905001935050505060405180910390f35b34156101cf57600080fd5b6101d7610814565b6040518080602001838152602001828103825284818151815260200191508051906020019060200280838360005b83811015610220578082015181840152602081019050610205565b50505050905001935050505060405180910390f35b341561024057600080fd5b61025a600480803560001916906020019091905050610883565b6040518082815260200191505060405180910390f35b341561027b57600080fd5b610295600480803560001916906020019091905050610a7a565b6040518080602001828103825283818151815260200191508051906020019060200280838360005b838110156102d85780820151818401526020810190506102bd565b505050509050019250505060405180910390f35b6000806002838154811015156102fe57fe5b906000526020600020900154905080915050919050565b60007f66616c73650000000000000000000000000000000000000000000000000000007affffffffffffffffffffffffffffffffffffffffffffffffffffff1916600080846000191660001916815260200190815260200160002060009054906101000a90047b01000000000000000000000000000000000000000000000000000000027affffffffffffffffffffffffffffffffffffffffffffffffffffff19161415801561046357507f74727565000000000000000000000000000000000000000000000000000000007affffffffffffffffffffffffffffffffffffffffffffffffffffff1916600080846000191660001916815260200190815260200160002060009054906101000a90047b01000000000000000000000000000000000000000000000000000000027affffffffffffffffffffffffffffffffffffffffffffffffffffff191614155b156104715760009050610476565b600190505b919050565b600061048682610315565b801561052f57507f66616c73650000000000000000000000000000000000000000000000000000007affffffffffffffffffffffffffffffffffffffffffffffffffffff1916600080846000191660001916815260200190815260200160002060009054906101000a90047b01000000000000000000000000000000000000000000000000000000027affffffffffffffffffffffffffffffffffffffffffffffffffffff1916145b151561053a57600080fd5b7f7472756500000000000000000000000000000000000000000000000000000000600080846000191660001916815260200190815260200160002060006101000a81548164ffffffffff02191690837b010000000000000000000000000000000000000000000000000000009004021790555060016000836000191660001916815260200190815260200160002080548060010182816105da9190610af3565b9160005260206000209001600042909190915055507f2c31ec36ee25f16f59c8b7a9eabfb624e3124aa87b362d5c04126c4b64578b21338342604051808473ffffffffffffffffffffffffffffffffffffffff1673ffffffffffffffffffffffffffffffffffffffff1681526020018360001916600019168152602001828152602001935050505060405180910390a1429050919050565b61067a610b1f565b600061068583610315565b15151561069157600080fd5b600280548060010182816106a59190610b33565b9160005260206000209001600085909190915090600019169055507f66616c7365000000000000000000000000000000000000000000000000000000600080856000191660001916815260200190815260200160002060006101000a81548164ffffffffff02191690837b01000000000000000000000000000000000000000000000000000000900402179055507fdf289bfd735dd7de302174e5531462c8f81b64e212447b83b52c404b56add9f8338442604051808473ffffffffffffffffffffffffffffffffffffffff1673ffffffffffffffffffffffffffffffffffffffff1681526020018360001916600019168152602001828152602001935050505060405180910390a1600280805490508180548060200260200160405190810160405280929190818152602001828054801561080457602002820191906000526020600020905b815460001916815260200190600101908083116107ec575b5050505050915091509150915091565b61081c610b1f565b6000600280805490508180548060200260200160405190810160405280929190818152602001828054801561087457602002820191906000526020600020905b8154600019168152602001906001019080831161085c575b50505050509150915091509091565b600061088e82610315565b801561093757507f74727565000000000000000000000000000000000000000000000000000000007affffffffffffffffffffffffffffffffffffffffffffffffffffff1916600080846000191660001916815260200190815260200160002060009054906101000a90047b01000000000000000000000000000000000000000000000000000000027affffffffffffffffffffffffffffffffffffffffffffffffffffff1916145b151561094257600080fd5b7f66616c7365000000000000000000000000000000000000000000000000000000600080846000191660001916815260200190815260200160002060006101000a81548164ffffffffff02191690837b010000000000000000000000000000000000000000000000000000009004021790555060016000836000191660001916815260200190815260200160002080548060010182816109e29190610af3565b9160005260206000209001600042909190915055507ff730b471700718e68cebd8f8820a4a20dcbb9db26f18737ca593f2c22e97f495338342604051808473ffffffffffffffffffffffffffffffffffffffff1673ffffffffffffffffffffffffffffffffffffffff1681526020018360001916600019168152602001828152602001935050505060405180910390a1429050919050565b610a82610b5f565b600160008360001916600019168152602001908152602001600020805480602002602001604051908101604052809291908181526020018280548015610ae757602002820191906000526020600020905b815481526020019060010190808311610ad3575b50505050509050919050565b815481835581811511610b1a57818360005260206000209182019101610b199190610b73565b5b505050565b602060405190810160405280600081525090565b815481835581811511610b5a57818360005260206000209182019101610b599190610b98565b5b505050565b602060405190810160405280600081525090565b610b9591905b80821115610b91576000816000905550600101610b79565b5090565b90565b610bba91905b80821115610bb6576000816000905550600101610b9e565b5090565b905600a165627a7a72305820bc19af23bfc2f9f3af9b9c8d304aaaabd0b74311ee613b1379447f329723ed220029",
  "source": "pragma solidity ^0.4.0;\n\n\ncontract TimeClock1{\n    \n    mapping(bytes32=>bytes5) private is_clocked_in;\n    mapping(bytes32=>uint[]) private time_stamps;\n    bytes32[] employees;\n\n    event clock_in_event( \n        address _from,\n        bytes32 _name,\n        uint _time\n        );\n    event clock_out_event( \n        address _from,\n        bytes32 _name,\n        uint _time\n        );\n    event employee_added_event( \n        address _from,\n        bytes32 _name,\n        uint _time\n        );\n\n    // function echo(string _string) public returns(string){\n    //   return _string;\n    // }\n        \n    function list_all_employees() public view returns (bytes32[], uint){\n        return (employees, employees.length);\n    }\n    \n    function clock_in(bytes32 _name) public returns(uint){\n        require( employee_exists(_name) && (is_clocked_in[_name] == bytes5(\"false\"))) ;\n        is_clocked_in[_name] = \"true\";\n        time_stamps[_name].push(now);\n        clock_in_event( msg.sender, _name, now);\n        return now;\n        \n    }\n    function clock_out(bytes32 _name) public returns(uint){\n        require( employee_exists(_name) && (is_clocked_in[_name] == bytes5(\"true\"))) ;\n        is_clocked_in[_name] = \"false\";\n        time_stamps[_name].push(now);\n        clock_out_event( msg.sender, _name, now);\n        return now;\n        \n    }\n    function get_time_stamps_for_name(bytes32 _name) public view returns (uint[]){\n        return time_stamps[_name];\n    }\n    \n    function add_employee(bytes32 _name) public returns(bytes32[], uint){\n        require( !employee_exists(_name) );\n    \n        employees.push(_name);\n        is_clocked_in[_name]=\"false\";\n        employee_added_event( msg.sender, _name, now);\n        return (employees, employees.length);\n\n    }\n    \n    function employee_exists(bytes32 _name) public view returns (bool){\n        if(((is_clocked_in[_name] != bytes5(\"false\"))) && ((is_clocked_in[_name] != bytes5(\"true\"))) ){\n            return false;\n        }\n        else{\n            return true;\n        }\n    }\n    \n    function get_employee(uint _index) public view returns(bytes32){\n        bytes32 _emp = employees[_index];\n        return(_emp);\n    }\n    \n}\n",
  "sourcePath": "/Users/davidbarrar/Documents/code/solidity/honolulu_code_examples/timeblock1.0/contracts/timeclock1.sol",
  "compiler": {
    "name": "solc",
    "version": "0.4.19+commit.c4cbbb05.Emscripten.clang"
  },
  "schemaVersion": "1.0.1",
  "updatedAt": "2018-02-09T03:12:00.189Z"
}