{
  "contractName": "TimeClock2",
  "abi": [
    {
      "constant": true,
      "inputs": [
        {
          "name": "_id",
          "type": "uint256"
        }
      ],
      "name": "get_employee",
      "outputs": [
        {
          "name": "",
          "type": "uint256"
        },
        {
          "name": "",
          "type": "string"
        },
        {
          "name": "",
          "type": "bool"
        },
        {
          "name": "",
          "type": "uint256[]"
        }
      ],
      "payable": false,
      "stateMutability": "view",
      "type": "function"
    },
    {
      "constant": false,
      "inputs": [
        {
          "name": "_id",
          "type": "uint256"
        }
      ],
      "name": "clock_out",
      "outputs": [],
      "payable": false,
      "stateMutability": "nonpayable",
      "type": "function"
    },
    {
      "constant": false,
      "inputs": [
        {
          "name": "_id",
          "type": "uint256"
        }
      ],
      "name": "clock_in",
      "outputs": [],
      "payable": false,
      "stateMutability": "nonpayable",
      "type": "function"
    },
    {
      "constant": true,
      "inputs": [],
      "name": "get_employee_count",
      "outputs": [
        {
          "name": "",
          "type": "uint256"
        }
      ],
      "payable": false,
      "stateMutability": "view",
      "type": "function"
    },
    {
      "constant": false,
      "inputs": [
        {
          "name": "_name",
          "type": "string"
        }
      ],
      "name": "add_employee",
      "outputs": [],
      "payable": false,
      "stateMutability": "nonpayable",
      "type": "function"
    },
    {
      "constant": true,
      "inputs": [
        {
          "name": "_name",
          "type": "string"
        }
      ],
      "name": "does_employee_exist",
      "outputs": [
        {
          "name": "",
          "type": "bool"
        }
      ],
      "payable": false,
      "stateMutability": "view",
      "type": "function"
    }
  ],
  "bytecode": "0x606060405260008055341561001357600080fd5b610af3806100226000396000f300606060405260043610610078576000357c0100000000000000000000000000000000000000000000000000000000900463ffffffff1680630207e2c61461007d57806314226d35146101735780637022927e14610196578063b7ff31bc146101b9578063e6f65150146101e2578063f4decffe1461023f575b600080fd5b341561008857600080fd5b61009e60048080359060200190919050506102b4565b60405180858152602001806020018415151515815260200180602001838103835286818151815260200191508051906020019080838360005b838110156100f25780820151818401526020810190506100d7565b50505050905090810190601f16801561011f5780820380516001836020036101000a031916815260200191505b50838103825284818151815260200191508051906020019060200280838360005b8381101561015b578082015181840152602081019050610140565b50505050905001965050505050505060405180910390f35b341561017e57600080fd5b610194600480803590602001909190505061042c565b005b34156101a157600080fd5b6101b760048080359060200190919050506105e7565b005b34156101c457600080fd5b6101cc6107a3565b6040518082815260200191505060405180910390f35b34156101ed57600080fd5b61023d600480803590602001908201803590602001908080601f016020809104026020016040519081016040528093929190818152602001838380828437820191505050505050919050506107ac565b005b341561024a57600080fd5b61029a600480803590602001908201803590602001908080601f0160208091040260200160405190810160405280939291908181526020018383808284378201915050505050509190505061094c565b604051808215151515815260200191505060405180910390f35b60006102be6109ce565b60006102c86109e2565b6003600086815260200190815260200160002060000154600360008781526020019081526020016000206001016003600088815260200190815260200160002060020160009054906101000a900460ff1660036000898152602001908152602001600020600301828054600181600116156101000203166002900480601f0160208091040260200160405190810160405280929190818152602001828054600181600116156101000203166002900480156103c45780601f10610399576101008083540402835291602001916103c4565b820191906000526020600020905b8154815290600101906020018083116103a757829003601f168201915b505050505092508080548060200260200160405190810160405280929190818152602001828054801561041657602002820191906000526020600020905b815481526020019060010190808311610402575b5050505050905093509350935093509193509193565b6104346109ce565b6000600260008481526020019081526020016000208054600181600116156101000203166002900480601f0160208091040260200160405190810160405280929190818152602001828054600181600116156101000203166002900480156104dd5780601f106104b2576101008083540402835291602001916104dd565b820191906000526020600020905b8154815290600101906020018083116104c057829003601f168201915b505050505091506004826040518082805190602001908083835b60208310151561051c57805182526020820191506020810190506020830392506104f7565b6001836020036101000a038019825116818451168082178552505050505050905001915050908152602001604051809103902060009054906101000a900460ff16151561056857600080fd5b6003600084815260200190815260200160002090508060020160009054906101000a900460ff16151561059a57600080fd5b60008160020160006101000a81548160ff0219169083151502179055508060030180548060010182816105cd91906109f6565b916000526020600020900160004290919091505550505050565b6105ef6109ce565b6000600260008481526020019081526020016000208054600181600116156101000203166002900480601f0160208091040260200160405190810160405280929190818152602001828054600181600116156101000203166002900480156106985780601f1061066d57610100808354040283529160200191610698565b820191906000526020600020905b81548152906001019060200180831161067b57829003601f168201915b505050505091506004826040518082805190602001908083835b6020831015156106d757805182526020820191506020810190506020830392506106b2565b6001836020036101000a038019825116818451168082178552505050505050905001915050908152602001604051809103902060009054906101000a900460ff16151561072357600080fd5b6003600084815260200190815260200160002090508060020160009054906101000a900460ff1615151561075657600080fd5b60018160020160006101000a81548160ff02191690831515021790555080600301805480600101828161078991906109f6565b916000526020600020900160004290919091505550505050565b60008054905090565b60006004826040518082805190602001908083835b6020831015156107e657805182526020820191506020810190506020830392506107c1565b6001836020036101000a038019825116818451168082178552505050505050905001915050908152602001604051809103902060009054906101000a900460ff1615151561083357600080fd5b60016004836040518082805190602001908083835b60208310151561086d5780518252602082019150602081019050602083039250610848565b6001836020036101000a038019825116818451168082178552505050505050905001915050908152602001604051809103902060006101000a81548160ff02191690831515021790555081600260008054815260200190815260200160002090805190602001906108df929190610a22565b5060036000805481526020019081526020016000209050600054816000018190555081816001019080519060200190610919929190610a22565b5060008160020160006101000a81548160ff02191690831515021790555060008081548092919060010191905055505050565b60006004826040518082805190602001908083835b6020831015156109865780518252602082019150602081019050602083039250610961565b6001836020036101000a038019825116818451168082178552505050505050905001915050908152602001604051809103902060009054906101000a900460ff169050919050565b602060405190810160405280600081525090565b602060405190810160405280600081525090565b815481835581811511610a1d57818360005260206000209182019101610a1c9190610aa2565b5b505050565b828054600181600116156101000203166002900490600052602060002090601f016020900481019282601f10610a6357805160ff1916838001178555610a91565b82800160010185558215610a91579182015b82811115610a90578251825591602001919060010190610a75565b5b509050610a9e9190610aa2565b5090565b610ac491905b80821115610ac0576000816000905550600101610aa8565b5090565b905600a165627a7a72305820e5e5d22020067d2ca6dbee8ae908fa5021a5d44d6f46b6efbf7ffd7e5557d7ae0029",
  "source": "pragma solidity ^0.4.0;\n\n\ncontract TimeClock2{\n    \n    uint employee_count = 0;\n    bytes32[] employees;\n\n    \n    \n    struct Employee {\n        uint id;\n        string name;\n        bool clocked_in;\n        uint[] time_stamps;\n    }\n    \n    mapping(uint=>string) id_to_name;\n    mapping (uint => Employee) Employees;\n    mapping (string => bool) Employee_exists;\n    \n    function get_employee_count() public constant returns(uint){\n        return employee_count;\n    }\n    \n    function get_employee(uint _id) public view returns (uint, string, bool, uint[]){\n        return (Employees[_id].id, Employees[_id].name, Employees[_id].clocked_in, Employees[_id].time_stamps);\n        \n    }\n    \n    function does_employee_exist(string _name) public view returns (bool){\n        return Employee_exists[_name];\n    }\n    \n    function add_employee(string _name) public {\n        require(!Employee_exists[_name]);\n        Employee_exists[_name] = true;\n        id_to_name[employee_count]=_name;\n        Employee storage _employee = Employees[employee_count];\n        _employee.id = employee_count;\n        _employee.name = _name;\n        _employee.clocked_in = false;\n        employee_count++;\n    }\n    \n    function clock_in(uint _id) public {\n        string memory _name = id_to_name[_id];\n        require(Employee_exists[_name]);\n        Employee storage _employee = Employees[_id];\n        require(!_employee.clocked_in);\n        _employee.clocked_in = true;\n        _employee.time_stamps.push(now);\n    }\n    \n    function clock_out(uint _id) public {\n        string memory _name = id_to_name[_id];\n        require(Employee_exists[_name]);\n        Employee storage _employee = Employees[_id];\n        require(_employee.clocked_in);\n        _employee.clocked_in = false;\n        _employee.time_stamps.push(now);\n    }\n    \n\n    \n    \n    \n}\n",
  "sourcePath": "/home/sailor/etherium/Honolulu_job/time_block_1.0/contracts/timeclock2.sol",
  "compiler": {
    "name": "solc",
    "version": "0.4.18+commit.9cf6e910.Emscripten.clang"
  },
  "schemaVersion": "1.0.1",
  "updatedAt": "2018-02-09T10:27:20.546Z"
}