{
  "contractName": "TimeClock",
  "abi": [
    {
      "anonymous": false,
      "inputs": [
        {
          "indexed": false,
          "name": "_from",
          "type": "address"
        },
        {
          "indexed": false,
          "name": "_name",
          "type": "string"
        },
        {
          "indexed": false,
          "name": "_time",
          "type": "uint256"
        }
      ],
      "name": "employee_added_event",
      "type": "event"
    },
    {
      "anonymous": false,
      "inputs": [
        {
          "indexed": false,
          "name": "_from",
          "type": "address"
        },
        {
          "indexed": false,
          "name": "_id",
          "type": "uint256"
        },
        {
          "indexed": false,
          "name": "_name",
          "type": "string"
        },
        {
          "indexed": false,
          "name": "_time",
          "type": "uint256"
        }
      ],
      "name": "clock_in_event",
      "type": "event"
    },
    {
      "anonymous": false,
      "inputs": [
        {
          "indexed": false,
          "name": "_from",
          "type": "address"
        },
        {
          "indexed": false,
          "name": "_id",
          "type": "uint256"
        },
        {
          "indexed": false,
          "name": "_name",
          "type": "string"
        },
        {
          "indexed": false,
          "name": "_time",
          "type": "uint256"
        }
      ],
      "name": "clock_out_event",
      "type": "event"
    },
    {
      "constant": true,
      "inputs": [],
      "name": "get_employee_count",
      "outputs": [
        {
          "name": "",
          "type": "uint256"
        }
      ],
      "payable": false,
      "stateMutability": "view",
      "type": "function"
    },
    {
      "constant": true,
      "inputs": [
        {
          "name": "_id",
          "type": "uint256"
        }
      ],
      "name": "get_employee",
      "outputs": [
        {
          "name": "",
          "type": "uint256"
        },
        {
          "name": "",
          "type": "string"
        },
        {
          "name": "",
          "type": "bool"
        },
        {
          "name": "",
          "type": "uint256[]"
        }
      ],
      "payable": false,
      "stateMutability": "view",
      "type": "function"
    },
    {
      "constant": true,
      "inputs": [
        {
          "name": "_name",
          "type": "string"
        }
      ],
      "name": "does_employee_exist",
      "outputs": [
        {
          "name": "",
          "type": "bool"
        }
      ],
      "payable": false,
      "stateMutability": "view",
      "type": "function"
    },
    {
      "constant": false,
      "inputs": [
        {
          "name": "_name",
          "type": "string"
        }
      ],
      "name": "add_employee",
      "outputs": [
        {
          "name": "",
          "type": "uint256"
        }
      ],
      "payable": false,
      "stateMutability": "nonpayable",
      "type": "function"
    },
    {
      "constant": false,
      "inputs": [
        {
          "name": "_id",
          "type": "uint256"
        }
      ],
      "name": "clock_in",
      "outputs": [],
      "payable": false,
      "stateMutability": "nonpayable",
      "type": "function"
    },
    {
      "constant": false,
      "inputs": [
        {
          "name": "_id",
          "type": "uint256"
        }
      ],
      "name": "clock_out",
      "outputs": [],
      "payable": false,
      "stateMutability": "nonpayable",
      "type": "function"
    }
  ],
  "bytecode": "0x606060405260008055341561001357600080fd5b610dad806100226000396000f300606060405260043610610078576000357c0100000000000000000000000000000000000000000000000000000000900463ffffffff1680630207e2c61461007d57806314226d35146101735780637022927e14610196578063b7ff31bc146101b9578063e6f65150146101e2578063f4decffe14610253575b600080fd5b341561008857600080fd5b61009e60048080359060200190919050506102c8565b60405180858152602001806020018415151515815260200180602001838103835286818151815260200191508051906020019080838360005b838110156100f25780820151818401526020810190506100d7565b50505050905090810190601f16801561011f5780820380516001836020036101000a031916815260200191505b50838103825284818151815260200191508051906020019060200280838360005b8381101561015b578082015181840152602081019050610140565b50505050905001965050505050505060405180910390f35b341561017e57600080fd5b6101946004808035906020019091905050610440565b005b34156101a157600080fd5b6101b760048080359060200190919050506106db565b005b34156101c457600080fd5b6101cc610977565b6040518082815260200191505060405180910390f35b34156101ed57600080fd5b61023d600480803590602001908201803590602001908080601f01602080910402602001604051908101604052809392919081815260200183838082843782019150505050505091905050610980565b6040518082815260200191505060405180910390f35b341561025e57600080fd5b6102ae600480803590602001908201803590602001908080601f01602080910402602001604051908101604052809392919081815260200183838082843782019150505050505091905050610c06565b604051808215151515815260200191505060405180910390f35b60006102d2610c88565b60006102dc610c9c565b6003600086815260200190815260200160002060000154600360008781526020019081526020016000206001016003600088815260200190815260200160002060020160009054906101000a900460ff1660036000898152602001908152602001600020600301828054600181600116156101000203166002900480601f0160208091040260200160405190810160405280929190818152602001828054600181600116156101000203166002900480156103d85780601f106103ad576101008083540402835291602001916103d8565b820191906000526020600020905b8154815290600101906020018083116103bb57829003601f168201915b505050505092508080548060200260200160405190810160405280929190818152602001828054801561042a57602002820191906000526020600020905b815481526020019060010190808311610416575b5050505050905093509350935093509193509193565b610448610c88565b6000600260008481526020019081526020016000208054600181600116156101000203166002900480601f0160208091040260200160405190810160405280929190818152602001828054600181600116156101000203166002900480156104f15780601f106104c6576101008083540402835291602001916104f1565b820191906000526020600020905b8154815290600101906020018083116104d457829003601f168201915b505050505091506004826040518082805190602001908083835b602083101515610530578051825260208201915060208101905060208303925061050b565b6001836020036101000a038019825116818451168082178552505050505050905001915050908152602001604051809103902060009054906101000a900460ff16151561057c57600080fd5b6003600084815260200190815260200160002090508060020160009054906101000a900460ff1615156105ae57600080fd5b60008160020160006101000a81548160ff0219169083151502179055508060030180548060010182816105e19190610cb0565b9160005260206000209001600042909190915055507f08cfb35b288507806619a065ed90860c8c2354ef99e6049c109e5627815e2b5533848442604051808573ffffffffffffffffffffffffffffffffffffffff1673ffffffffffffffffffffffffffffffffffffffff16815260200184815260200180602001838152602001828103825284818151815260200191508051906020019080838360005b8381101561069957808201518184015260208101905061067e565b50505050905090810190601f1680156106c65780820380516001836020036101000a031916815260200191505b509550505050505060405180910390a1505050565b6106e3610c88565b6000600260008481526020019081526020016000208054600181600116156101000203166002900480601f01602080910402602001604051908101604052809291908181526020018280546001816001161561010002031660029004801561078c5780601f106107615761010080835404028352916020019161078c565b820191906000526020600020905b81548152906001019060200180831161076f57829003601f168201915b505050505091506004826040518082805190602001908083835b6020831015156107cb57805182526020820191506020810190506020830392506107a6565b6001836020036101000a038019825116818451168082178552505050505050905001915050908152602001604051809103902060009054906101000a900460ff16151561081757600080fd5b6003600084815260200190815260200160002090508060020160009054906101000a900460ff1615151561084a57600080fd5b60018160020160006101000a81548160ff02191690831515021790555080600301805480600101828161087d9190610cb0565b9160005260206000209001600042909190915055507fe09c6d7dda4f32dbc507870218c1dbabb288c1dc30d5ae2ec957cc8ef221c49833848442604051808573ffffffffffffffffffffffffffffffffffffffff1673ffffffffffffffffffffffffffffffffffffffff16815260200184815260200180602001838152602001828103825284818151815260200191508051906020019080838360005b8381101561093557808201518184015260208101905061091a565b50505050905090810190601f1680156109625780820380516001836020036101000a031916815260200191505b509550505050505060405180910390a1505050565b60008054905090565b60008060006004846040518082805190602001908083835b6020831015156109bd5780518252602082019150602081019050602083039250610998565b6001836020036101000a038019825116818451168082178552505050505050905001915050908152602001604051809103902060009054906101000a900460ff16915081151515610a0d57600080fd5b60016004856040518082805190602001908083835b602083101515610a475780518252602082019150602081019050602083039250610a22565b6001836020036101000a038019825116818451168082178552505050505050905001915050908152602001604051809103902060006101000a81548160ff0219169083151502179055508360026000805481526020019081526020016000209080519060200190610ab9929190610cdc565b5060036000805481526020019081526020016000209050600054816000018190555083816001019080519060200190610af3929190610cdc565b5060008160020160006101000a81548160ff02191690831515021790555060008081548092919060010191905055507fff06a7036561f9e991c6fd2f256d9d4f2437fca65be753824adfa6e8c5c5c6d6338542604051808473ffffffffffffffffffffffffffffffffffffffff1673ffffffffffffffffffffffffffffffffffffffff16815260200180602001838152602001828103825284818151815260200191508051906020019080838360005b83811015610bbe578082015181840152602081019050610ba3565b50505050905090810190601f168015610beb5780820380516001836020036101000a031916815260200191505b5094505050505060405180910390a160005492505050919050565b60006004826040518082805190602001908083835b602083101515610c405780518252602082019150602081019050602083039250610c1b565b6001836020036101000a038019825116818451168082178552505050505050905001915050908152602001604051809103902060009054906101000a900460ff169050919050565b602060405190810160405280600081525090565b602060405190810160405280600081525090565b815481835581811511610cd757818360005260206000209182019101610cd69190610d5c565b5b505050565b828054600181600116156101000203166002900490600052602060002090601f016020900481019282601f10610d1d57805160ff1916838001178555610d4b565b82800160010185558215610d4b579182015b82811115610d4a578251825591602001919060010190610d2f565b5b509050610d589190610d5c565b5090565b610d7e91905b80821115610d7a576000816000905550600101610d62565b5090565b905600a165627a7a723058203e321f9473400c2f405e30d8b6f770d7168e5a20b9ccd10de1e9422ed1e374540029",
  "source": "pragma solidity ^0.4.0;\n\n\ncontract TimeClock{\n    \n    uint employee_count = 0;\n    bytes32[] employees;\n\n    //TODO ADD EVENTS\n    event employee_added_event( \n        address _from,\n        string _name,\n        uint _time\n        );\n    event clock_in_event(\n        address _from,\n        uint _id,\n        string _name,\n        uint _time\n        );\n\n    event clock_out_event(\n        address _from,\n        uint _id,\n        string _name,\n        uint _time\n        );\n    \n\n    \n    \n    struct Employee {\n        uint id;\n        string name;\n        bool clocked_in;\n        uint[] time_stamps;\n    }\n    \n    mapping(uint=>string) id_to_name;\n    mapping (uint => Employee) Employees;\n    mapping (string => bool) Employee_exists;\n    \n    function get_employee_count() public constant returns(uint){\n        return employee_count;\n    }\n    \n    function get_employee(uint _id) public view returns (uint, string, bool, uint[]){\n        return (Employees[_id].id, Employees[_id].name, Employees[_id].clocked_in, Employees[_id].time_stamps);\n        \n    }\n    \n    function does_employee_exist(string _name) public constant returns (bool){\n        return Employee_exists[_name];\n    }\n    \n    function add_employee(string _name) public returns(uint){\n        bool flag = Employee_exists[_name];\n        require(!flag);\n        Employee_exists[_name] = true;\n        id_to_name[employee_count]=_name;\n        Employee storage _employee = Employees[employee_count];\n        _employee.id = employee_count;\n        _employee.name = _name;\n        _employee.clocked_in = false;\n        employee_count++;\n        employee_added_event(msg.sender, _name, now);\n        return employee_count;\n    }\n    \n    function clock_in(uint _id) public {\n        string memory _name = id_to_name[_id];\n        require(Employee_exists[_name]);\n        Employee storage _employee = Employees[_id];\n        require(!_employee.clocked_in);\n        _employee.clocked_in = true;\n        _employee.time_stamps.push(now);\n        clock_in_event(msg.sender, _id, _name, now );\n    }\n    \n    function clock_out(uint _id) public {\n        string memory _name = id_to_name[_id];\n        require(Employee_exists[_name]);\n        Employee storage _employee = Employees[_id];\n        require(_employee.clocked_in);\n        _employee.clocked_in = false;\n        _employee.time_stamps.push(now);\n        clock_out_event(msg.sender, _id, _name, now );\n\n    }\n    \n\n    \n    \n    \n}\n",
  "sourcePath": "/Users/davidbarrar/Documents/code/solidity/honolulu_code_examples/timeblock1.0/contracts/timeclock2.sol",
  "compiler": {
    "name": "solc",
    "version": "0.4.19+commit.c4cbbb05.Emscripten.clang"
  },
  "schemaVersion": "1.0.1",
  "updatedAt": "2018-02-09T10:27:15.232Z"
}